{
  "contractName": "Bank",
  "abi": [
    {
      "inputs": [
        {
          "internalType": "address",
          "name": "",
          "type": "address"
        }
      ],
      "name": "accounts",
      "outputs": [
        {
          "internalType": "address",
          "name": "owner",
          "type": "address"
        },
        {
          "internalType": "uint256",
          "name": "balance",
          "type": "uint256"
        },
        {
          "internalType": "uint256",
          "name": "timeStamp",
          "type": "uint256"
        }
      ],
      "stateMutability": "view",
      "type": "function",
      "constant": true
    },
    {
      "inputs": [],
      "name": "interestRate",
      "outputs": [
        {
          "internalType": "uint256",
          "name": "",
          "type": "uint256"
        }
      ],
      "stateMutability": "view",
      "type": "function",
      "constant": true
    },
    {
      "inputs": [],
      "name": "totalether",
      "outputs": [
        {
          "internalType": "uint256",
          "name": "",
          "type": "uint256"
        }
      ],
      "stateMutability": "view",
      "type": "function",
      "constant": true
    },
    {
      "stateMutability": "payable",
      "type": "receive",
      "payable": true
    },
    {
      "inputs": [],
      "name": "creatAccount",
      "outputs": [],
      "stateMutability": "nonpayable",
      "type": "function"
    },
    {
      "inputs": [
        {
          "internalType": "address",
          "name": "_account",
          "type": "address"
        }
      ],
      "name": "deposit",
      "outputs": [],
      "stateMutability": "payable",
      "type": "function",
      "payable": true
    },
    {
      "inputs": [],
      "name": "withdrawAll",
      "outputs": [],
      "stateMutability": "nonpayable",
      "type": "function"
    }
  ],
  "bytecode": "0x60806040526003600155600060025534801561001a57600080fd5b50610a838061002a6000396000f3fe6080604052600436106100595760003560e01c80633b2c2008146100705780635e5c06e2146100875780637c3a00fd14610126578063853828b6146101515780638c5fcf6714610168578063f340fa01146101935761006b565b3661006b573460025401600281905550005b600080fd5b34801561007c57600080fd5b506100856101d7565b005b34801561009357600080fd5b506100d6600480360360208110156100aa57600080fd5b81019080803573ffffffffffffffffffffffffffffffffffffffff1690602001909291905050506102b4565b604051808473ffffffffffffffffffffffffffffffffffffffff1673ffffffffffffffffffffffffffffffffffffffff168152602001838152602001828152602001935050505060405180910390f35b34801561013257600080fd5b5061013b6102fe565b6040518082815260200191505060405180910390f35b34801561015d57600080fd5b50610166610304565b005b34801561017457600080fd5b5061017d610555565b6040518082815260200191505060405180910390f35b6101d5600480360360208110156101a957600080fd5b81019080803573ffffffffffffffffffffffffffffffffffffffff16906020019092919050505061055b565b005b6101df6109c9565b60405180606001604052803373ffffffffffffffffffffffffffffffffffffffff1681526020016000815260200160008152509050806000803373ffffffffffffffffffffffffffffffffffffffff1673ffffffffffffffffffffffffffffffffffffffff16815260200190815260200160002060008201518160000160006101000a81548173ffffffffffffffffffffffffffffffffffffffff021916908373ffffffffffffffffffffffffffffffffffffffff160217905550602082015181600101556040820151816002015590505050565b60006020528060005260406000206000915090508060000160009054906101000a900473ffffffffffffffffffffffffffffffffffffffff16908060010154908060020154905083565b60015481565b3373ffffffffffffffffffffffffffffffffffffffff166000803373ffffffffffffffffffffffffffffffffffffffff1673ffffffffffffffffffffffffffffffffffffffff16815260200190815260200160002060000160009054906101000a900473ffffffffffffffffffffffffffffffffffffffff1673ffffffffffffffffffffffffffffffffffffffff1614610406576040517f08c379a00000000000000000000000000000000000000000000000000000000081526004018080602001828103825260158152602001807f6163636f756e7420646f65736e2774206578697374000000000000000000000081525060200191505060405180910390fd5b60003390506000610416826106ae565b90508060025411610472576040517f08c379a0000000000000000000000000000000000000000000000000000000008152600401808060200182810382526028815260200180610a016028913960400191505060405180910390fd5b8173ffffffffffffffffffffffffffffffffffffffff166108fc829081150290604051600060405180830381858888f193505050501580156104b8573d6000803e3d6000fd5b50426000803373ffffffffffffffffffffffffffffffffffffffff1673ffffffffffffffffffffffffffffffffffffffff1681526020019081526020016000206002018190555060008060003373ffffffffffffffffffffffffffffffffffffffff1673ffffffffffffffffffffffffffffffffffffffff1681526020019081526020016000206001018190555080600254036002819055505050565b60025481565b600034116105d1576040517f08c379a000000000000000000000000000000000000000000000000000000000815260040180806020018281038252601b8152602001807f496e7375666669656e637420616d6f756e74206f662066756e6473000000000081525060200191505060405180910390fd5b346000808373ffffffffffffffffffffffffffffffffffffffff1673ffffffffffffffffffffffffffffffffffffffff16815260200190815260200160002060010154016000808373ffffffffffffffffffffffffffffffffffffffff1673ffffffffffffffffffffffffffffffffffffffff16815260200190815260200160002060010181905550426000808373ffffffffffffffffffffffffffffffffffffffff1673ffffffffffffffffffffffffffffffffffffffff16815260200190815260200160002060020181905550346002540160028190555050565b60008173ffffffffffffffffffffffffffffffffffffffff166000808473ffffffffffffffffffffffffffffffffffffffff1673ffffffffffffffffffffffffffffffffffffffff16815260200190815260200160002060000160009054906101000a900473ffffffffffffffffffffffffffffffffffffffff1673ffffffffffffffffffffffffffffffffffffffff16146107b2576040517f08c379a00000000000000000000000000000000000000000000000000000000081526004018080602001828103825260158152602001807f6163636f756e7420646f65736e2774206578697374000000000000000000000081525060200191505060405180910390fd5b6000808373ffffffffffffffffffffffffffffffffffffffff1673ffffffffffffffffffffffffffffffffffffffff16815260200190815260200160002060000160009054906101000a900473ffffffffffffffffffffffffffffffffffffffff1673ffffffffffffffffffffffffffffffffffffffff163373ffffffffffffffffffffffffffffffffffffffff1614610897576040517f08c379a0000000000000000000000000000000000000000000000000000000008152600401808060200182810382526025815260200180610a296025913960400191505060405180910390fd5b61089f6109c9565b6000808473ffffffffffffffffffffffffffffffffffffffff1673ffffffffffffffffffffffffffffffffffffffff1681526020019081526020016000206040518060600160405290816000820160009054906101000a900473ffffffffffffffffffffffffffffffffffffffff1673ffffffffffffffffffffffffffffffffffffffff1673ffffffffffffffffffffffffffffffffffffffff16815260200160018201548152602001600282015481525050905060008060008573ffffffffffffffffffffffffffffffffffffffff1673ffffffffffffffffffffffffffffffffffffffff1681526020019081526020016000206002015442039050600063bbf81e008360200151600154840202816109b557fe5b048360200151019050809350505050919050565b6040518060600160405280600073ffffffffffffffffffffffffffffffffffffffff1681526020016000815260200160008152509056fe54686572652069736e277420656e6f7567682066756e647320696e2074686520636f6e747261637463616e277420706572666f726d206f7065726174696f6e206e6f7420746865206f776e6572a264697066735822122072f35c9bf672f3ac3b055d1c40f0b0ac234a0accd598ae793cb5b7562f7a110f64736f6c63430006000033",
  "source": "pragma solidity >=0.6.0 <8.10.0;\r\n\r\ncontract Bank{\r\n\r\n    struct Account{\r\n        address owner;\r\n        uint balance;\r\n        uint timeStamp;\r\n    }\r\n\r\n    mapping(address => Account) public accounts;\r\n    uint public interestRate = 3;\r\n    uint public totalether = 0;\r\n\r\n\r\n    function creatAccount() public{\r\n        Account memory newAccount = Account(msg.sender, 0, 0);\r\n        accounts[msg.sender] = newAccount;\r\n    }\r\n\r\n    function deposit(address _account) public payable{\r\n        require(msg.value > 0, \"Insuffienct amount of funds\");\r\n        accounts[_account].balance = accounts[_account].balance + msg.value;\r\n        accounts[_account].timeStamp = block.timestamp;\r\n        totalether = totalether + msg.value;\r\n        // add interest\r\n    }\r\n\r\n    function getInterest(address _account) internal returns(uint){\r\n        require(accounts[_account].owner == _account, \"account doesn't exist\");\r\n        require(msg.sender == accounts[_account].owner, \"can't perform operation not the owner\");\r\n        Account memory accountInfo = accounts[_account];\r\n        uint timePassed = block.timestamp - accounts[_account].timeStamp;\r\n        //(Simple Interest × 100)/(Principal × Time)\r\n        uint newBalance = accountInfo.balance + uint((timePassed * interestRate * accountInfo.balance)/ (100 * 365 * 24 * 60 * 60));\r\n        return newBalance;\r\n\r\n    }\r\n\r\n    function withdrawAll() public{\r\n        require(accounts[msg.sender].owner == msg.sender, \"account doesn't exist\");\r\n        address payable reciever = payable(msg.sender);\r\n        uint amount = getInterest(reciever);\r\n\r\n        require(totalether > amount, \"There isn't enough funds in the contract\");\r\n        reciever.transfer(amount);\r\n        accounts[msg.sender].timeStamp = block.timestamp;\r\n        accounts[msg.sender].balance = 0;\r\n\r\n        totalether = totalether - amount;\r\n    }\r\n\r\n    receive() external payable{\r\n        totalether = totalether + msg.value;\r\n    }\r\n}",
  "sourcePath": "C:\\my_projects\\bank\\contracts\\bank.sol",
  "compiler": {
    "name": "solc",
    "version": "0.6.0+commit.26b70077.Emscripten.clang"
  },
  "schemaVersion": "3.4.4",
  "updatedAt": "2022-02-19T04:59:12.632Z",
  "networkType": "ethereum",
  "devdoc": {
    "methods": {}
  },
  "userdoc": {
    "methods": {}
  }
}